{
  "_format": "hh-sol-artifact-1",
  "contractName": "Collin",
  "sourceName": "contracts/Collin.sol",
  "abi": [
    {
      "inputs": [],
      "stateMutability": "nonpayable",
      "type": "constructor"
    },
    {
      "inputs": [
        {
          "internalType": "address",
          "name": "spender",
          "type": "address"
        },
        {
          "internalType": "uint256",
          "name": "allowance",
          "type": "uint256"
        },
        {
          "internalType": "uint256",
          "name": "needed",
          "type": "uint256"
        }
      ],
      "name": "ERC20InsufficientAllowance",
      "type": "error"
    },
    {
      "inputs": [
        {
          "internalType": "address",
          "name": "sender",
          "type": "address"
        },
        {
          "internalType": "uint256",
          "name": "balance",
          "type": "uint256"
        },
        {
          "internalType": "uint256",
          "name": "needed",
          "type": "uint256"
        }
      ],
      "name": "ERC20InsufficientBalance",
      "type": "error"
    },
    {
      "inputs": [
        {
          "internalType": "address",
          "name": "approver",
          "type": "address"
        }
      ],
      "name": "ERC20InvalidApprover",
      "type": "error"
    },
    {
      "inputs": [
        {
          "internalType": "address",
          "name": "receiver",
          "type": "address"
        }
      ],
      "name": "ERC20InvalidReceiver",
      "type": "error"
    },
    {
      "inputs": [
        {
          "internalType": "address",
          "name": "sender",
          "type": "address"
        }
      ],
      "name": "ERC20InvalidSender",
      "type": "error"
    },
    {
      "inputs": [
        {
          "internalType": "address",
          "name": "spender",
          "type": "address"
        }
      ],
      "name": "ERC20InvalidSpender",
      "type": "error"
    },
    {
      "inputs": [
        {
          "internalType": "address",
          "name": "owner",
          "type": "address"
        }
      ],
      "name": "OwnableInvalidOwner",
      "type": "error"
    },
    {
      "inputs": [
        {
          "internalType": "address",
          "name": "account",
          "type": "address"
        }
      ],
      "name": "OwnableUnauthorizedAccount",
      "type": "error"
    },
    {
      "anonymous": false,
      "inputs": [
        {
          "indexed": true,
          "internalType": "address",
          "name": "owner",
          "type": "address"
        },
        {
          "indexed": true,
          "internalType": "address",
          "name": "spender",
          "type": "address"
        },
        {
          "indexed": false,
          "internalType": "uint256",
          "name": "value",
          "type": "uint256"
        }
      ],
      "name": "Approval",
      "type": "event"
    },
    {
      "anonymous": false,
      "inputs": [
        {
          "indexed": true,
          "internalType": "address",
          "name": "previousOwner",
          "type": "address"
        },
        {
          "indexed": true,
          "internalType": "address",
          "name": "newOwner",
          "type": "address"
        }
      ],
      "name": "OwnershipTransferred",
      "type": "event"
    },
    {
      "anonymous": false,
      "inputs": [
        {
          "indexed": true,
          "internalType": "address",
          "name": "from",
          "type": "address"
        },
        {
          "indexed": true,
          "internalType": "address",
          "name": "to",
          "type": "address"
        },
        {
          "indexed": false,
          "internalType": "uint256",
          "name": "value",
          "type": "uint256"
        }
      ],
      "name": "Transfer",
      "type": "event"
    },
    {
      "inputs": [],
      "name": "INITIAL_SUPPLY",
      "outputs": [
        {
          "internalType": "uint256",
          "name": "",
          "type": "uint256"
        }
      ],
      "stateMutability": "view",
      "type": "function"
    },
    {
      "inputs": [
        {
          "internalType": "address",
          "name": "owner",
          "type": "address"
        },
        {
          "internalType": "address",
          "name": "spender",
          "type": "address"
        }
      ],
      "name": "allowance",
      "outputs": [
        {
          "internalType": "uint256",
          "name": "",
          "type": "uint256"
        }
      ],
      "stateMutability": "view",
      "type": "function"
    },
    {
      "inputs": [
        {
          "internalType": "address",
          "name": "spender",
          "type": "address"
        },
        {
          "internalType": "uint256",
          "name": "value",
          "type": "uint256"
        }
      ],
      "name": "approve",
      "outputs": [
        {
          "internalType": "bool",
          "name": "",
          "type": "bool"
        }
      ],
      "stateMutability": "nonpayable",
      "type": "function"
    },
    {
      "inputs": [
        {
          "internalType": "address",
          "name": "account",
          "type": "address"
        }
      ],
      "name": "balanceOf",
      "outputs": [
        {
          "internalType": "uint256",
          "name": "",
          "type": "uint256"
        }
      ],
      "stateMutability": "view",
      "type": "function"
    },
    {
      "inputs": [
        {
          "internalType": "uint256",
          "name": "amount",
          "type": "uint256"
        }
      ],
      "name": "burn",
      "outputs": [],
      "stateMutability": "nonpayable",
      "type": "function"
    },
    {
      "inputs": [],
      "name": "decimals",
      "outputs": [
        {
          "internalType": "uint8",
          "name": "",
          "type": "uint8"
        }
      ],
      "stateMutability": "view",
      "type": "function"
    },
    {
      "inputs": [
        {
          "internalType": "address",
          "name": "to",
          "type": "address"
        },
        {
          "internalType": "uint256",
          "name": "amount",
          "type": "uint256"
        }
      ],
      "name": "mint",
      "outputs": [],
      "stateMutability": "nonpayable",
      "type": "function"
    },
    {
      "inputs": [],
      "name": "name",
      "outputs": [
        {
          "internalType": "string",
          "name": "",
          "type": "string"
        }
      ],
      "stateMutability": "view",
      "type": "function"
    },
    {
      "inputs": [],
      "name": "owner",
      "outputs": [
        {
          "internalType": "address",
          "name": "",
          "type": "address"
        }
      ],
      "stateMutability": "view",
      "type": "function"
    },
    {
      "inputs": [],
      "name": "renounceOwnership",
      "outputs": [],
      "stateMutability": "nonpayable",
      "type": "function"
    },
    {
      "inputs": [],
      "name": "symbol",
      "outputs": [
        {
          "internalType": "string",
          "name": "",
          "type": "string"
        }
      ],
      "stateMutability": "view",
      "type": "function"
    },
    {
      "inputs": [],
      "name": "totalSupply",
      "outputs": [
        {
          "internalType": "uint256",
          "name": "",
          "type": "uint256"
        }
      ],
      "stateMutability": "view",
      "type": "function"
    },
    {
      "inputs": [
        {
          "internalType": "address",
          "name": "to",
          "type": "address"
        },
        {
          "internalType": "uint256",
          "name": "value",
          "type": "uint256"
        }
      ],
      "name": "transfer",
      "outputs": [
        {
          "internalType": "bool",
          "name": "",
          "type": "bool"
        }
      ],
      "stateMutability": "nonpayable",
      "type": "function"
    },
    {
      "inputs": [
        {
          "internalType": "address",
          "name": "from",
          "type": "address"
        },
        {
          "internalType": "address",
          "name": "to",
          "type": "address"
        },
        {
          "internalType": "uint256",
          "name": "value",
          "type": "uint256"
        }
      ],
      "name": "transferFrom",
      "outputs": [
        {
          "internalType": "bool",
          "name": "",
          "type": "bool"
        }
      ],
      "stateMutability": "nonpayable",
      "type": "function"
    },
    {
      "inputs": [
        {
          "internalType": "address",
          "name": "newOwner",
          "type": "address"
        }
      ],
      "name": "transferOwnership",
      "outputs": [],
      "stateMutability": "nonpayable",
      "type": "function"
    }
  ],
  "bytecode": "0x608060405234801561001057600080fd5b50336040518060400160405280600681526020017f436f6c6c696e00000000000000000000000000000000000000000000000000008152506040518060400160405280600481526020017f436f6c6c00000000000000000000000000000000000000000000000000000000815250816003908161008d9190610706565b50806004908161009d9190610706565b505050600073ffffffffffffffffffffffffffffffffffffffff168173ffffffffffffffffffffffffffffffffffffffff16036101125760006040517f1e4fbdf70000000000000000000000000000000000000000000000000000000081526004016101099190610819565b60405180910390fd5b6101218161014360201b60201c565b5061013e336b09b18ab5df7180b6b800000061020960201b60201c565b6108f8565b6000600560009054906101000a900473ffffffffffffffffffffffffffffffffffffffff16905081600560006101000a81548173ffffffffffffffffffffffffffffffffffffffff021916908373ffffffffffffffffffffffffffffffffffffffff1602179055508173ffffffffffffffffffffffffffffffffffffffff168173ffffffffffffffffffffffffffffffffffffffff167f8be0079c531659141344cd1fd0a4f28419497f9722a3daafe3b4186f6b6457e060405160405180910390a35050565b600073ffffffffffffffffffffffffffffffffffffffff168273ffffffffffffffffffffffffffffffffffffffff160361027b5760006040517fec442f050000000000000000000000000000000000000000000000000000000081526004016102729190610819565b60405180910390fd5b61028d6000838361029160201b60201c565b5050565b600073ffffffffffffffffffffffffffffffffffffffff168373ffffffffffffffffffffffffffffffffffffffff16036102e35780600260008282546102d79190610863565b925050819055506103b6565b60008060008573ffffffffffffffffffffffffffffffffffffffff1673ffffffffffffffffffffffffffffffffffffffff1681526020019081526020016000205490508181101561036f578381836040517fe450d38c000000000000000000000000000000000000000000000000000000008152600401610366939291906108a6565b60405180910390fd5b8181036000808673ffffffffffffffffffffffffffffffffffffffff1673ffffffffffffffffffffffffffffffffffffffff16815260200190815260200160002081905550505b600073ffffffffffffffffffffffffffffffffffffffff168273ffffffffffffffffffffffffffffffffffffffff16036103ff578060026000828254039250508190555061044c565b806000808473ffffffffffffffffffffffffffffffffffffffff1673ffffffffffffffffffffffffffffffffffffffff168152602001908152602001600020600082825401925050819055505b8173ffffffffffffffffffffffffffffffffffffffff168373ffffffffffffffffffffffffffffffffffffffff167fddf252ad1be2c89b69c2b068fc378daa952ba7f163c4a11628f55a4df523b3ef836040516104a991906108dd565b60405180910390a3505050565b600081519050919050565b7f4e487b7100000000000000000000000000000000000000000000000000000000600052604160045260246000fd5b7f4e487b7100000000000000000000000000000000000000000000000000000000600052602260045260246000fd5b6000600282049050600182168061053757607f821691505b60208210810361054a576105496104f0565b5b50919050565b60008190508160005260206000209050919050565b60006020601f8301049050919050565b600082821b905092915050565b6000600883026105b27fffffffffffffffffffffffffffffffffffffffffffffffffffffffffffffffff82610575565b6105bc8683610575565b95508019841693508086168417925050509392505050565b6000819050919050565b6000819050919050565b60006106036105fe6105f9846105d4565b6105de565b6105d4565b9050919050565b6000819050919050565b61061d836105e8565b6106316106298261060a565b848454610582565b825550505050565b600090565b610646610639565b610651818484610614565b505050565b5b818110156106755761066a60008261063e565b600181019050610657565b5050565b601f8211156106ba5761068b81610550565b61069484610565565b810160208510156106a3578190505b6106b76106af85610565565b830182610656565b50505b505050565b600082821c905092915050565b60006106dd600019846008026106bf565b1980831691505092915050565b60006106f683836106cc565b9150826002028217905092915050565b61070f826104b6565b67ffffffffffffffff811115610728576107276104c1565b5b610732825461051f565b61073d828285610679565b600060209050601f831160018114610770576000841561075e578287015190505b61076885826106ea565b8655506107d0565b601f19841661077e86610550565b60005b828110156107a657848901518255600182019150602085019450602081019050610781565b868310156107c357848901516107bf601f8916826106cc565b8355505b6001600288020188555050505b505050505050565b600073ffffffffffffffffffffffffffffffffffffffff82169050919050565b6000610803826107d8565b9050919050565b610813816107f8565b82525050565b600060208201905061082e600083018461080a565b92915050565b7f4e487b7100000000000000000000000000000000000000000000000000000000600052601160045260246000fd5b600061086e826105d4565b9150610879836105d4565b925082820190508082111561089157610890610834565b5b92915050565b6108a0816105d4565b82525050565b60006060820190506108bb600083018661080a565b6108c86020830185610897565b6108d56040830184610897565b949350505050565b60006020820190506108f26000830184610897565b92915050565b6112c7806109076000396000f3fe608060405234801561001057600080fd5b50600436106100f55760003560e01c806342966c681161009757806395d89b411161006657806395d89b4114610262578063a9059cbb14610280578063dd62ed3e146102b0578063f2fde38b146102e0576100f5565b806342966c68146101ee57806370a082311461020a578063715018a61461023a5780638da5cb5b14610244576100f5565b806323b872dd116100d357806323b872dd146101665780632ff2e9dc14610196578063313ce567146101b457806340c10f19146101d2576100f5565b806306fdde03146100fa578063095ea7b31461011857806318160ddd14610148575b600080fd5b6101026102fc565b60405161010f9190610eee565b60405180910390f35b610132600480360381019061012d9190610fa9565b61038e565b60405161013f9190611004565b60405180910390f35b6101506103b1565b60405161015d919061102e565b60405180910390f35b610180600480360381019061017b9190611049565b6103bb565b60405161018d9190611004565b60405180910390f35b61019e6103ea565b6040516101ab919061102e565b60405180910390f35b6101bc6103fa565b6040516101c991906110b8565b60405180910390f35b6101ec60048036038101906101e79190610fa9565b610403565b005b610208600480360381019061020391906110d3565b610419565b005b610224600480360381019061021f9190611100565b610426565b604051610231919061102e565b60405180910390f35b61024261046e565b005b61024c610482565b604051610259919061113c565b60405180910390f35b61026a6104ac565b6040516102779190610eee565b60405180910390f35b61029a60048036038101906102959190610fa9565b61053e565b6040516102a79190611004565b60405180910390f35b6102ca60048036038101906102c59190611157565b610561565b6040516102d7919061102e565b60405180910390f35b6102fa60048036038101906102f59190611100565b6105e8565b005b60606003805461030b906111c6565b80601f0160208091040260200160405190810160405280929190818152602001828054610337906111c6565b80156103845780601f1061035957610100808354040283529160200191610384565b820191906000526020600020905b81548152906001019060200180831161036757829003601f168201915b5050505050905090565b60008061039961066e565b90506103a6818585610676565b600191505092915050565b6000600254905090565b6000806103c661066e565b90506103d3858285610688565b6103de85858561071d565b60019150509392505050565b6b09b18ab5df7180b6b800000081565b60006012905090565b61040b610811565b6104158282610898565b5050565b610423338261091a565b50565b60008060008373ffffffffffffffffffffffffffffffffffffffff1673ffffffffffffffffffffffffffffffffffffffff168152602001908152602001600020549050919050565b610476610811565b610480600061099c565b565b6000600560009054906101000a900473ffffffffffffffffffffffffffffffffffffffff16905090565b6060600480546104bb906111c6565b80601f01602080910402602001604051908101604052809291908181526020018280546104e7906111c6565b80156105345780601f1061050957610100808354040283529160200191610534565b820191906000526020600020905b81548152906001019060200180831161051757829003601f168201915b5050505050905090565b60008061054961066e565b905061055681858561071d565b600191505092915050565b6000600160008473ffffffffffffffffffffffffffffffffffffffff1673ffffffffffffffffffffffffffffffffffffffff16815260200190815260200160002060008373ffffffffffffffffffffffffffffffffffffffff1673ffffffffffffffffffffffffffffffffffffffff16815260200190815260200160002054905092915050565b6105f0610811565b600073ffffffffffffffffffffffffffffffffffffffff168173ffffffffffffffffffffffffffffffffffffffff16036106625760006040517f1e4fbdf7000000000000000000000000000000000000000000000000000000008152600401610659919061113c565b60405180910390fd5b61066b8161099c565b50565b600033905090565b6106838383836001610a62565b505050565b60006106948484610561565b90507fffffffffffffffffffffffffffffffffffffffffffffffffffffffffffffffff8110156107175781811015610707578281836040517ffb8f41b20000000000000000000000000000000000000000000000000000000081526004016106fe939291906111f7565b60405180910390fd5b61071684848484036000610a62565b5b50505050565b600073ffffffffffffffffffffffffffffffffffffffff168373ffffffffffffffffffffffffffffffffffffffff160361078f5760006040517f96c6fd1e000000000000000000000000000000000000000000000000000000008152600401610786919061113c565b60405180910390fd5b600073ffffffffffffffffffffffffffffffffffffffff168273ffffffffffffffffffffffffffffffffffffffff16036108015760006040517fec442f050000000000000000000000000000000000000000000000000000000081526004016107f8919061113c565b60405180910390fd5b61080c838383610c39565b505050565b61081961066e565b73ffffffffffffffffffffffffffffffffffffffff16610837610482565b73ffffffffffffffffffffffffffffffffffffffff16146108965761085a61066e565b6040517f118cdaa700000000000000000000000000000000000000000000000000000000815260040161088d919061113c565b60405180910390fd5b565b600073ffffffffffffffffffffffffffffffffffffffff168273ffffffffffffffffffffffffffffffffffffffff160361090a5760006040517fec442f05000000000000000000000000000000000000000000000000000000008152600401610901919061113c565b60405180910390fd5b61091660008383610c39565b5050565b600073ffffffffffffffffffffffffffffffffffffffff168273ffffffffffffffffffffffffffffffffffffffff160361098c5760006040517f96c6fd1e000000000000000000000000000000000000000000000000000000008152600401610983919061113c565b60405180910390fd5b61099882600083610c39565b5050565b6000600560009054906101000a900473ffffffffffffffffffffffffffffffffffffffff16905081600560006101000a81548173ffffffffffffffffffffffffffffffffffffffff021916908373ffffffffffffffffffffffffffffffffffffffff1602179055508173ffffffffffffffffffffffffffffffffffffffff168173ffffffffffffffffffffffffffffffffffffffff167f8be0079c531659141344cd1fd0a4f28419497f9722a3daafe3b4186f6b6457e060405160405180910390a35050565b600073ffffffffffffffffffffffffffffffffffffffff168473ffffffffffffffffffffffffffffffffffffffff1603610ad45760006040517fe602df05000000000000000000000000000000000000000000000000000000008152600401610acb919061113c565b60405180910390fd5b600073ffffffffffffffffffffffffffffffffffffffff168373ffffffffffffffffffffffffffffffffffffffff1603610b465760006040517f94280d62000000000000000000000000000000000000000000000000000000008152600401610b3d919061113c565b60405180910390fd5b81600160008673ffffffffffffffffffffffffffffffffffffffff1673ffffffffffffffffffffffffffffffffffffffff16815260200190815260200160002060008573ffffffffffffffffffffffffffffffffffffffff1673ffffffffffffffffffffffffffffffffffffffff168152602001908152602001600020819055508015610c33578273ffffffffffffffffffffffffffffffffffffffff168473ffffffffffffffffffffffffffffffffffffffff167f8c5be1e5ebec7d5bd14f71427d1e84f3dd0314c0f7b2291e5b200ac8c7c3b92584604051610c2a919061102e565b60405180910390a35b50505050565b600073ffffffffffffffffffffffffffffffffffffffff168373ffffffffffffffffffffffffffffffffffffffff1603610c8b578060026000828254610c7f919061125d565b92505081905550610d5e565b60008060008573ffffffffffffffffffffffffffffffffffffffff1673ffffffffffffffffffffffffffffffffffffffff16815260200190815260200160002054905081811015610d17578381836040517fe450d38c000000000000000000000000000000000000000000000000000000008152600401610d0e939291906111f7565b60405180910390fd5b8181036000808673ffffffffffffffffffffffffffffffffffffffff1673ffffffffffffffffffffffffffffffffffffffff16815260200190815260200160002081905550505b600073ffffffffffffffffffffffffffffffffffffffff168273ffffffffffffffffffffffffffffffffffffffff1603610da75780600260008282540392505081905550610df4565b806000808473ffffffffffffffffffffffffffffffffffffffff1673ffffffffffffffffffffffffffffffffffffffff168152602001908152602001600020600082825401925050819055505b8173ffffffffffffffffffffffffffffffffffffffff168373ffffffffffffffffffffffffffffffffffffffff167fddf252ad1be2c89b69c2b068fc378daa952ba7f163c4a11628f55a4df523b3ef83604051610e51919061102e565b60405180910390a3505050565b600081519050919050565b600082825260208201905092915050565b60005b83811015610e98578082015181840152602081019050610e7d565b60008484015250505050565b6000601f19601f8301169050919050565b6000610ec082610e5e565b610eca8185610e69565b9350610eda818560208601610e7a565b610ee381610ea4565b840191505092915050565b60006020820190508181036000830152610f088184610eb5565b905092915050565b600080fd5b600073ffffffffffffffffffffffffffffffffffffffff82169050919050565b6000610f4082610f15565b9050919050565b610f5081610f35565b8114610f5b57600080fd5b50565b600081359050610f6d81610f47565b92915050565b6000819050919050565b610f8681610f73565b8114610f9157600080fd5b50565b600081359050610fa381610f7d565b92915050565b60008060408385031215610fc057610fbf610f10565b5b6000610fce85828601610f5e565b9250506020610fdf85828601610f94565b9150509250929050565b60008115159050919050565b610ffe81610fe9565b82525050565b60006020820190506110196000830184610ff5565b92915050565b61102881610f73565b82525050565b6000602082019050611043600083018461101f565b92915050565b60008060006060848603121561106257611061610f10565b5b600061107086828701610f5e565b935050602061108186828701610f5e565b925050604061109286828701610f94565b9150509250925092565b600060ff82169050919050565b6110b28161109c565b82525050565b60006020820190506110cd60008301846110a9565b92915050565b6000602082840312156110e9576110e8610f10565b5b60006110f784828501610f94565b91505092915050565b60006020828403121561111657611115610f10565b5b600061112484828501610f5e565b91505092915050565b61113681610f35565b82525050565b6000602082019050611151600083018461112d565b92915050565b6000806040838503121561116e5761116d610f10565b5b600061117c85828601610f5e565b925050602061118d85828601610f5e565b9150509250929050565b7f4e487b7100000000000000000000000000000000000000000000000000000000600052602260045260246000fd5b600060028204905060018216806111de57607f821691505b6020821081036111f1576111f0611197565b5b50919050565b600060608201905061120c600083018661112d565b611219602083018561101f565b611226604083018461101f565b949350505050565b7f4e487b7100000000000000000000000000000000000000000000000000000000600052601160045260246000fd5b600061126882610f73565b915061127383610f73565b925082820190508082111561128b5761128a61122e565b5b9291505056fea2646970667358221220f327bdc22d7ad6fa2248daff00f1ddc9ea2d0b8827c0af3e33179ced0d274a9e64736f6c634300081c0033",
  "linkReferences": {},
  "deployedLinkReferences": {}
}